:100000000C9438000C9455000C9455000C94550039
:100010000C94C6010C9455000C9455000C9455009A
:100020000C9455000C9455000C9455000C945500FC
:100030000C9455000C9455000C9455000C945500EC
:100040000C9455000C9455000C9457000C945500DA
:100050000C9455000C9455000C9455000C945500CC
:100060000C9455000C9455000C9455000C945500BC
:1000700011241FBECFEFD0E1DEBFCDBF11E0A0E065
:10008000B1E0E6EFFCE002C005900D92A830B107A8
:10009000D9F721E0A8E0B1E001C01D92A233B20778
:1000A000E1F70E94AD040C9446060C94000078948D
:1000B0002F932FB72F938F939F938091300190911F
:1000C00031010296909331018093300180910001BB
:1000D00090910101883B9B4048F4809100019091F0
:1000E0000101029690930101809300019F918F91ED
:1000F0002F912FBF2F911895CF92DF92EF92FF9201
:100100000F931F93CF93DF93D12CC12CC2E0D0E08B
:1001100010E000E0C60123E0880F991F2A95E1F75F
:100120009C01285F3E4F7901CE01800F911F0E94F4
:10013000C9058F3F21F0F701E00FF11F80830F5FAA
:100140001F4F0830110581F728962FEFC21AD20AE7
:10015000C232D105E9F6FF24FA948E010252110948
:10016000CE0121960E94C9058F3F59F0F80193E016
:10017000EE0FFF1F9A95E1F7E85FFE4FE80FF11DC4
:10018000F082C632D10549F786E290E00E94C905A7
:100190008F3F11F08093020187E290E00E94C90531
:1001A0008F3F11F080932F0188E290E00E94C905F3
:1001B0008F3F11F080932A0189E290E00E94C905E7
:1001C0008F3F11F080932B01DF91CF911F910F9101
:1001D000FF90EF90DF90CF900895589859985A98D3
:1001E0005B9880912F01811102C0589A08958091E7
:1001F0002F01813011F4599A089580912F01823096
:1002000011F45A9A08955B9A0895E0912D01E350F4
:10021000EC3108F051C0F0E0E85BF94F0C94370581
:1002200090912E0181E0911180E080932E01109237
:100230002D01089580910201813051F482E0809374
:1002400002016091020186E290E00E94D105EFCFA9
:1002500081E0F5CF80912F01833081F410922F013E
:1002600080910201813011F410922D010E94ED0065
:1002700060912F0187E290E00C94D10580912F01CD
:100280008F5F80932F01ECCF90910201913031F478
:1002900080912A01892780932A01089510922B01C9
:1002A000089580910201813021F480912A0192E029
:1002B000F1CF81E080932B0108958091020181307C
:1002C00021F480912A0194E0E5CF82E0F3CF809180
:1002D0000201813021F480912A0198E0DBCF83E094
:1002E000E9CF80910201813021F480912A0190E1CF
:1002F000D1CF84E0DFCF80910201813021F4809161
:100300002A0190E2C7CF85E0D5CF809102018130EC
:1003100021F480912A0190E4BDCF86E0CBCF80917B
:100320000201813021F480912A018058B4CF87E006
:10033000C1CF81B181B982B18F6182B987B18FEFAD
:1003400087B994B184B98AB18F678AB908958FE16A
:1003500080936B00E8E6F0E080818160808385B562
:10036000826085BDEEE6F0E08081816080837894D4
:1003700008959C011092310110923001809130015A
:100380009091310182179307C8F3089578941F92D2
:100390000F920FB60F9211242F933F934F935F93B9
:1003A0006F937F938F939F93AF93BF93EF93FF933D
:1003B00080B1909103018923981771F089E190E051
:1003C0000E94B90190B1809103019823891721F00F
:1003D00090B1892380932D01FF91EF91BF91AF914F
:1003E0009F918F917F916F915F914F913F912F914D
:1003F0000F900FBE0F901F901895CF93DF935E9ACA
:10040000CAE2D1E0888188B988E090E00E94B90111
:100410005E9810922D01688188E290E0DF91CF9183
:100420000C94D10515B8EAE2F1E0918185B121E0A3
:1004300030E001C0220F9A95EAF7822B85B95E9AC7
:1004400080912F01218138E0839FC0011124885FB2
:100450009E4F820F911DFC01808188B988E090E059
:100460000E94B9015E9810922D010895EF92FF92BB
:100470000F931F93CF93C82F88B10C2F10E09801D2
:10048000285D3E4F790181111FC05E9AF90180817C
:1004900088B988E090E00E94B9015E98F7018081F8
:1004A000F801E65DFE4F8083C11106C060912A010C
:1004B00088E290E00E94D10510922E01CF911F9109
:1004C0000F91FF90EF90089588B1F90180835E9AB3
:1004D00018B888E090E00E94B9015E98C111ECCF95
:1004E00010922A01E3CF5C9A5D9A86E990E00E941F
:1004F000B9015C985D9886E990E00C94B9010F937E
:100500001F93CF93DF930AE211E0F801918185B147
:10051000C1E0D0E09E0101C0220F9A95EAF7822B3C
:1005200085B986E990E00E94B901F801918185B111
:1005300001C0CC0F9A95EAF7C095C823C5B986E9E2
:1005400090E0DF91CF911F910F910C94B901CF935F
:10055000DF936AEA90E080E00E94D105E0912C01EF
:10056000E750E73118F5F0E0EC59F94F0C943705F6
:1005700010922B0180912F01C2E0D0E0882309F472
:10058000EFC080912F01CAE0D0E0813009F4E8C0CB
:1005900080912F01C2E1D0E0823009F4E1C0809166
:1005A0002F01CAE1D0E0833009F4DAC0C1E0D0E025
:1005B000D7C081E080932B0180912F01C3E0D0E070
:1005C000882309F4CDC080912F01CBE0D0E08130A9
:1005D00009F4C6C080912F01C3E1D0E0823009F454
:1005E000BFC080912F01833009F7CBE1D0E0B8C0C4
:1005F00082E080932B0180912F01C4E0D0E088231A
:1006000009F4AEC080912F01CCE0D0E0813009F434
:10061000A7C080912F01C4E1D0E0823009F4A0C0CE
:1006200080912F01833011F6CCE1D0E099C083E0B6
:1006300080932B0180912F01C5E0D0E0882309F43D
:100640008FC080912F01CDE0D0E0813009F488C0C7
:1006500080912F01C5E1D0E0823009F481C0809102
:100660002F01833009F0A2CFCDE1D0E079C084E042
:1006700080932B0180912F01C6E0D0E0882309F4FC
:100680006FC080912F01CEE0D0E0813009F468C0C6
:1006900080912F01C6E1D0E0823009F461C08091E1
:1006A0002F01833009F082CFCEE1D0E059C085E040
:1006B00080932B0180912F01C7E0D0E0882309F4BB
:1006C0004FC080912F01CFE0D0E0813009F448C0C5
:1006D00080912F01C7E1D0E0823009F441C08091C0
:1006E0002F01833009F062CFCFE1D0E039C086E03E
:1006F00080932B0180912F01C8E0D0E0882381F105
:1007000080912F01C0E1D0E0813051F180912F0123
:10071000C8E1D0E0823021F180912F01833009F0CF
:1007200045CFC0E2D0E01CC087E080932B018091D0
:100730002F01C9E0D0E0882399F080912F01C1E119
:10074000D0E0813069F080912F01C9E1D0E08230A2
:1007500039F080912F01C1E2D0E0833009F026CF3B
:1007600080912F0120912B0130912A0148E0849F34
:10077000C0011124885F9E4F820F911DFC013083C0
:1007800080912A018F3F59F580912F018823F1F044
:1007900080912F018130E9F080912F018230E1F0CA
:1007A00080912F01833011F4C5E2D0E060912B01DC
:1007B000CE010E94D10580B1909103018923981345
:1007C00037C010922C01DF91CF910895C2E2D0E0A2
:1007D000EDCFC3E2D0E0EACFC4E2D0E0E7CF609152
:1007E0002A01CE010E94D10580912F018823B9F002
:1007F00080912F018130B1F080912F018230A9F0DA
:1008000080912F01833011F4C5E2D0E0CE010E9427
:10081000C90590912B018913CECF6FEFC9CFC2E2EA
:10082000D0E0F4CFC3E2D0E0F1CFC4E2D0E0EECF2D
:100830000E947F02C0CFCF92DF92EF92FF920F9380
:100840001F93CF93DF9308E010E088E0C82ED12CEF
:10085000EE24E394F12C0E94B90525B1B6010E9463
:100860002305E70101C0CC0F8A95EAF72C2B25B9A7
:1008700086E990E00E94B90185B1C095C823C5B949
:1008800086E990E00E94B9010150110921F70E9408
:1008900073020E947302DF91CF911F910F91FF901D
:1008A000EF90DF90CF900C947302EF92FF920F9332
:1008B0001F93CF93DF935C9A82E390E00E94B9018B
:1008C0005C9882E390E00E94B90110E000E0EE2421
:1008D000E394F12C85B1E701002E01C0CC0F0A94FE
:1008E000EAF78C2B85B982E390E00E94B90185B1CB
:1008F000C095C823C5B982E390E00E94B9010F5F9B
:100900001F4F0830110531F706E010E0EE24E394A4
:10091000F12C85B1E701002E01C0CC0F0A94EAF753
:100920008C2B85B982E390E00E94B90185B1C09516
:10093000C823C5B982E390E00E94B90101501109B2
:1009400040F70E9473020E947302DF91CF911F91C2
:100950000F91FF90EF900C9473020E9499010E94F6
:10096000A70190E080E00E94C9058A3A11F40E9434
:100970007C000E9455040E94ED00809102018130AC
:1009800021F18230D1F75D985C9A0E941202809129
:100990000201823091F780912D01882371F00E942D
:1009A000050180912D01882341F060912B0189E29E
:1009B00090E00E94D1050E94120280912E018823AE
:1009C00031F381E00E943602E2CF5D9A5C9815B85F
:1009D00080912A0188B980910201813071F680915D
:1009E0002D01882311F110920101109200019091C4
:1009F00003012091000130910101283B3B4058F454
:100A000080B189239813F5CF0E94050180912D01B3
:100A100081110E94FD0180912D01882331F0809188
:100A20002D0180932C0110922D0180912E0188239D
:100A300019F080E00E94360280912C01882359F23F
:100A40000E94A702C8CF97FB072E16F4009407D088
:100A500077FD09D00E943D0507FC05D03EF4909536
:100A600081959F4F0895709561957F4F0895EE0F82
:100A7000FF1F0590F491E02D0994AA1BBB1B51E1C7
:100A800007C0AA1FBB1FA617B70710F0A61BB70BFE
:100A9000881F991F5A95A9F780959095BC01CD01A3
:100AA0000895CF92DF92EF92FF92CF93DF93CDB76D
:100AB000DEB72A970FB6F894DEBF0FBECDBF898789
:100AC0009A87A985BA852D913D914D915C91298395
:100AD0003A834B835C83232B242B252B41F424E284
:100AE00039ED4BE557E029833A834B835C83698179
:100AF0007A818B819C812DE133EF41E050E00E94AF
:100B0000E30569017A01A7EAB1E49B01AC010E9407
:100B1000020669837A838B839C83ACEEB4EFA701D2
:100B200096010E9410069B01AC0189819A81AB81DC
:100B3000BC81820F931FA41FB51FB7FF03C001978D
:100B4000A109B048E985FA8580839183A283B383A4
:100B50009F772A960FB6F894DEBF0FBECDBFDF9108
:100B6000CF91FF90EF90DF90CF9008950E945105B4
:100B7000089584E091E00E9451050895B0E0A0E05E
:100B80008093040190930501A0930601B09307019F
:100B90000895F999FECF92BD81BDF89A992780B545
:100BA0000895262FF999FECF92BD81BDF89A01973D
:100BB00000B4021639F01FBA20BD0FB6F894FA9AA5
:100BC000F99A0FBE0895052E97FB1EF400940E941B
:100BD000FA0557FD07D00E94150607FC03D04EF416
:100BE0000C94FA0550954095309521953F4F4F4F05
:100BF0005F4F089590958095709561957F4F8F4FC9
:100C00009F4F08950E943706A59F900DB49F900DA9
:100C1000A49F800D911D11240895B7FF0C94020626
:100C20000E940206821B930B0895A1E21A2EAA1BB2
:100C3000BB1BFD010DC0AA1FBB1FEE1FFF1FA2178C
:100C4000B307E407F50720F0A21BB30BE40BF50B89
:100C5000661F771F881F991F1A9469F76095709512
:100C6000809590959B01AC01BD01CF010895A29F95
:100C7000B001B39FC001A39F700D811D1124911D70
:100C8000B29F700D811D1124911D0895F894FFCF1E
:100C90002A015C015C015C0185015C015C015C0175
:100CA0005C015C015C015C018F015C015C015C0129
:100CB00071015C015C015C017B011A015D015C0159
:100CC00067014401510110017703D602D602D60212
:100CD000D602D602D602D6029403D602D602D60295
:100CE0003703D602D602D6025703D602F802D6023E
:060CF0001703B802D9024F
:080CF600B80B011F0100000012
:00000001FF
